:100000000C9435000C945D000C945D000C945D0024
:100010000C945D000C945D000C945D000C945D00EC
:100020000C945D000C945D000C945D000C945D00DC
:100030000C945D000C945D000C945D000C945D00CC
:100040000C94B4080C945D000C9424090C94FE08E4
:100050000C945D000C945D000C945D000C945D00AC
:100060000C9499070C945D00560911241FBECFEF24
:10007000D8E0DEBFCDBF22E0A2E9B1E001C01D9211
:10008000A73AB207E1F711E0A0E0B1E0E8E3FCE154
:1000900002C005900D92A239B107D9F710E0C5E36F
:1000A000D0E004C02197FE010E94780BC433D10731
:1000B000C9F70E9483090C941A0E0C94000085ED78
:1000C0008093BC008091BC0084FDFCCF1092E001C5
:1000D00008952091BC01260F3327331F21323105AB
:1000E000ECF42091E001FC0190E080E0243069F024
:1000F00082E00895A091BC012191AC0144565E4F6D
:10010000A40FB52FB11D2C930196861798F38091FB
:10011000BC01680F6093BC0180E0089581E0089500
:1001200008958FEF9FEF08958FEF9FEF08958091CF
:100130009B0190E09195819591090895CF93DF936C
:10014000CB01EA01642F0E946900CE01DF91CF91BB
:100150000895CF93DF931F92CDB7DEB7698361E037
:10016000CE0101960E94690081E090E00F90DF913E
:10017000CF910895AF92BF92CF92DF92EF92FF920C
:100180000F931F93CF93DF936C017B018B01040FBF
:10019000151FEB015E01AE18BF08C017D10759F05B
:1001A0006991D601ED91FC910190F081E02DC6019D
:1001B0000995892B79F7C501DF91CF911F910F9197
:1001C000FF90EF90DF90CF90BF90AF900895FC012B
:1001D000538D448D252F30E0842F90E0821B930BAC
:1001E000541710F0CF96089501970895FC01918D52
:1001F000828D981761F0A28DAE0FBF2FB11D5D9655
:100200008C91928D9F5F9F73928F90E008958FEFF6
:100210009FEF0895FC01918D828D981731F0828DAA
:10022000E80FF11D858D90E008958FEF9FEF089501
:10023000FC01918D228D892F90E0805C9F4F821B65
:1002400091098F739927089586E092E00E94180122
:1002500021E0892B09F420E0822F089580E090E0CE
:10026000892B29F00E94240181110C94000008952B
:10027000FC01A48DA80FB92FB11DA35ABF4F2C911B
:10028000848D90E001968F739927848FA689B78912
:100290002C93A089B1898C91837080648C93938D09
:1002A000848D981306C00288F389E02D80818F7DAC
:1002B00080830895EF92FF920F931F93CF93DF9364
:1002C000EC0181E0888F9B8D8C8D98131AC0E88992
:1002D000F989808185FF15C09FB7F894EE89FF8961
:1002E0006083E889F98980818370806480839FBFFF
:1002F00081E090E0DF91CF911F910F91FF90EF90FF
:100300000895F62E0B8D10E00F5F1F4F0F7311270E
:10031000E02E8C8D8E110CC00FB607FCFACFE88949
:10032000F989808185FFF5CFCE010E943801F1CF98
:10033000EB8DEC0FFD2FF11DE35AFF4FF0829FB7BD
:10034000F8940B8FEA89FB8980818062CFCFCF93AD
:10035000DF93EC01888D8823B9F0AA89BB89E889ED
:10036000F9898C9185FD03C0808186FD0DC00FB693
:1003700007FCF7CF8C9185FFF2CF808185FFEDCF11
:10038000CE010E943801E9CFDF91CF91089590E02E
:1003900080E008950F931F93CF93DF93EC01888142
:1003A0009981009759F02A813B812617370730F051
:1003B00081E0DF91CF911F910F9108958B016F5FC5
:1003C0007F4F0E94440D009759F0998388831B83C7
:1003D0000A832C813D81232B59F7FC011082E8CF41
:1003E00080E0E7CFCF92DF92EF92FF920F931F93BF
:1003F000CF93DF93FC018481982F9F7739F4807825
:10040000806284831182108213821282848185FD2E
:100410000CC0F0E0E0E0CF01DF91CF911F910F9190
:10042000FF90EF90DF90CF9008957A018B016F01DC
:10043000C081D181209709F16E817F81601771079A
:10044000D1F00115110541F06115710529F0C801C0
:100450000E940A0E882379F08D81882371F028E0AC
:100460008202C0011124C80FD91FE4CFF983E883A9
:10047000FB83EA8325C0FE01CECFE701EC81FD813D
:100480008A819B810896E817F90718F23897D701F7
:100490001596FC93EE931497309709F4BACFE601C2
:1004A000AA81BB81109711F3CF018A1B9B0B23E01C
:1004B000959587952A95E1F715968C93FB83EA83AA
:1004C0001582148217830683A6CFCF92DF92EF9214
:1004D000FF920F931F93CF93DF938C01DC019296D1
:1004E000ED91FC91E80FF91F12826C01B2E0CB0E86
:1004F000D11CC114D10431F1F60101900020E9F7BB
:100500003197EC19FD09F1F0DC01ED90FC90D70179
:100510001496CD91DC91CE0FDF1FBE01C7010E9462
:10052000CA01882379F0F701208131818481958186
:10053000B601820F931F0E94130ED7011596DC930C
:10054000CE931497F80113A212A2DF91CF911F91BD
:100550000F91FF90EF90DF90CF900895CF93DF93AE
:10056000EC018AA19BA19C012F5F3F4F3BA32AA3D3
:10057000FE01E80FF91F62830296809718F0CE0102
:100580000E9465028CA19DA101969DA38CA3DF9181
:10059000CF910895CF92DF92EF92FF920F931F9326
:1005A000CF93DF938C016A01EB017B01E40EF51E12
:1005B000CE15DF0599F02991F80182A193A1AC0134
:1005C0004F5F5F4F53A342A3E80FF91F22830296A8
:1005D000809770F3C8010E946502EACFC601DF91DF
:1005E000CF911F910F91FF90EF90DF90CF900895E2
:1005F000EF92FF920F931F93CF93DF93CDB7DEB7A8
:1006000066970FB6F894DEBF0FBECDBF8C01CB014D
:10061000FE0177969F014AE0E42EF12CB7010E947B
:100620002E0B805D8293CB010097C1F7A9014E1B71
:100630005F0BBF01C8010E94CA02F80124A135A1C5
:10064000820F931F95A384A366960FB6F894DEBF1E
:100650000FBECDBFDF91CF911F910F91FF90EF9013
:1006600008958F929F92AF92BF92CF92DF92EF92B6
:10067000FF920F931F93CF93DF93CDB7DEB76697AB
:100680000FB6F894DEBF0FBECDBF7C018E01095EB0
:100690001F4F68018AE0882E912CA12CB12CCB0130
:1006A000BA01A50194010E94420B942F852F605D31
:1006B000F80162938F01A901692F782F4115510527
:1006C0006105710561F7A6014E1B5F0BBF01C701F4
:1006D0000E94CA02F70124A135A1820F931F95A39E
:1006E00084A366960FB6F894DEBF0FBECDBFDF9130
:1006F000CF911F910F91FF90EF90DF90CF90BF901F
:10070000AF909F908F900895CF93DF93EC01FB0102
:1007100001900020E9F73197AF01461B570B0E946B
:10072000CA022CA13DA1820F931F9DA38CA3DF9130
:10073000CF910895FF920F931F93CF93DF9361158D
:10074000710549F46FE671E0DF91CF911F910F9130
:10075000FF900C9484038B01EC0162E2CE010E94B5
:10076000AE02F80161918F01662351F0E0E6F1E0FD
:10077000F080FF2099F38181681759F03296F8CF05
:1007800062E2CE01DF91CF911F910F91FF900C9407
:10079000AE026CE5CE010E94AE026F2DDFCF2F922C
:1007A0003F924F925F926F927F928F929F92AF9201
:1007B000BF92CF92DF92EF92FF920F931F93CF934E
:1007C000DF93CDB7DEB76A970FB6F894DEBF0FBEE2
:1007D000CDBF8C014B01DC0114968C9114978F775F
:1007E000863009F47CC2C8F4823000F1843008F00D
:1007F0005CC2F8014281538160817181C4010E9411
:10080000CA02D40194962D913C919597820F931F23
:1008100095969C938E939497F4C18C3099F148F4FB
:10082000883009F457C28A3009F445C26FE671E096
:1008300063C2803209F40CC28034C1F76BE5C40195
:100840000E94AE02F801008111810115110509F421
:10085000FAC1B401C8010E94CF03D80115968C914A
:10086000882309F4F0C1B8E08B02C0011124080FFD
:10087000191F0115110509F4E6C16CE2C4010E94BB
:10088000AE02E3CFF8014080518062807380A30103
:100890009201C301B2010E94D3098111C7CF20E0A8
:1008A00030E0A901C301B2010E94D309882379F085
:1008B000A3019201C301B2010E947F0B9B01AC0115
:1008C000C301B2010E94D309882309F4AFCF20E00D
:1008D00030E0A901C301B2010E94D30987FF08C01B
:1008E0006DE2C4010E94AE0277FA709477F87094BA
:1008F00020E836E948E15BE4C301B2010E941A0C2A
:1009000087FD79C04EE4E42E41E0F42E5EE1C52E71
:1009100051E0D52E66E3A62E61E0B62E00E210E08F
:10092000312C212CD7015E914E913E912E917D016B
:10093000C301B2010E941A0C87FD0DC0F601248983
:10094000358946895789C301B2010E94390A2B01B2
:100950003C01200E311E15950795F4E0CF1AD10801
:10096000AE14BF04F9F62FEF2B8B20E030E0A90185
:10097000C301B2010E941A0C18160CF043C02CEAF5
:1009800035EC47E257E3C301B2010E94D3091816C0
:10099000CCF19B89A4E09A0250011124D12CC12CE6
:1009A000BB89BF3F79F17501EC0CFD1CF701EA5FD3
:1009B000FE4FA301920160817181828193810E9427
:1009C0001A0C18167CF4F701EA5CFE4F2081318185
:1009D00042815381C301B2010E94390A2B013C01BB
:1009E000201A310A15950795EB89E150EB8BF4E05D
:1009F000CF1AD108D5CF00E210E085E08B8B312CE7
:100A0000212CB3CFC301B2010E94EB0B6B8B7C8B0B
:100A10008D8B9E8B6B017C0116E080E492E4AFE04D
:100A2000B0E08F8B988FA98FBA8F012F11509AE069
:100A3000C916D104E104F104C8F06F89788D898D5D
:100A40009A8D2AE030E040E050E00E94420B2F8B6C
:100A5000388F498F5A8FC701B6012AE030E040E055
:100A600050E00E94420B69017A01DFCF6B897C89DB
:100A70008D899E890E94D8099B01AC01C301B201F6
:100A80000E947E0B6B017C016F89788D898D9A8D18
:100A90000E94D8099B01AC01C701B6010E94390A26
:100AA0002B013C010E94EB0B6B017C010E94D809D9
:100AB0009B01AC01C301B2010E947E0B9B01AC0102
:100AC0000E947F0B0E94EB0BC60ED71EE81EF91E7C
:100AD0008F89988DA98DBA8DC816D906EA06FB06AE
:100AE00000F18B899C89AD89BE890196A11DB11D3C
:100AF0008B8B9C8BAD8BBE8B2114310439F10A9703
:100B0000A105B10518F19FEF291A390AC12CD12C82
:100B1000760181E090E0A0E0B0E08B8B9C8BAD8B08
:100B2000BE8B9AE0492E512C612C712CC701B60165
:100B3000A30192010E94420B672B682B692B51F491
:100B4000101644F469017A010150F0CFC12CD12C68
:100B50007601E7CF4B895C896D897E89C4010E944B
:100B60003103002309F43FC05E0191E1A90EB11CDD
:100B7000102FBA8AA98A8AE0482E512C612C712C38
:100B8000115068F0C701B601A30192010E94420B07
:100B9000605DD5016E935D0169017A01F1CF802F0F
:100BA00090E0BC0160957095E989FA89E81BF90B22
:100BB00031978EE2808344275527461B570BE1E18E
:100BC000F0E0EC0FFD1F6E0F7F1FC4010E94CA02F0
:100BD000D40194962D913C919597820F931F9596F1
:100BE0009C938E93949737FE25C064E771E0C4010F
:100BF0000E9484036627772762197309C4010E9443
:100C0000F8026A960FB6F894DEBF0FBECDBFDF9133
:100C1000CF911F910F91FF90EF90DF90CF90BF90F9
:100C2000AF909F908F907F906F905F904F903F908C
:100C30002F9008952114310421F365E6C4010E9428
:100C4000AE02B101DBCF6DE5C4010E94AE02D9CF87
:100C50006BE7C4010E94AE02F80100811181011509
:100C6000110509F1D80116966D917C91C4010E947D
:100C70009A036AE3C4010E94AE02B401C8010E9453
:100C8000CF03F8018581882371F0F8E08F02C0015D
:100C90001124080F191F0115110529F06CE2C40178
:100CA0000E94AE02DCCF6DE7CFCF6D917C91C40185
:100CB0000E949A03A6CFF801C080D180E280F38021
:100CC0006DE2C4010E94AE02B701A601C4010E94F8
:100CD000310397CF4D915D916D917C91F7CFF801E4
:100CE00080819181A281B38167E771E0892B8A2B92
:100CF0008B2B11F46CE771E0C4010E94840381CF57
:100D0000EF92FF920F931F93CF93DF93CDB7DEB790
:100D1000C159D1400FB6F894DEBF0FBECDBFE091F0
:100D20001602F091170282E08083E0911602F091A2
:100D300017021082E0911202F09113021082E091EA
:100D40001402F091150280E1808310921E02E0915E
:100D50001A02F0911B0286E08083E0911802F09164
:100D60001902808180618083E0911802F09119025C
:100D7000808188608083E0911802F091190280815F
:100D800080688083E0911802F091190280818F7D44
:100D90008083CE010E969A8389839C838B837E0108
:100DA00086EDE80EF11CFE82ED82F886EF828D85DD
:100DB00080788D87AE014F5F5F4F62E871E0CE01B2
:100DC00009960E94F201FC01892B41F094819078F0
:100DD0009460948389E891E091838083AE014F5FB2
:100DE0005F4F6DE871E0CE0109960E94F201FC01AF
:100DF000892B61F0948190789860948388EF92E3D6
:100E0000A3E9B0E580839183A283B3838E01045765
:100E10001E4FF801118210821382128215821482F1
:100E200070E060E0C8010E94CA01F80120813181B0
:100E3000811177C02115310519F0C9010E94BB0C41
:100E4000F801118210821582148213821282C8590D
:100E5000DE4F19830883C856D140C657DE4F19822A
:100E60001882CA58D14084E2FE01E859FE4FDE01E3
:100E7000AC5BBE4F01900D928A95E1F784E2FE01D2
:100E8000EC5BFE4FDE01A05EBE4F01900D928A9595
:100E9000E1F784E2FE01E05EFE4FDE01A450BF4FA9
:100EA00001900D928A95E1F784E2FE01E450FF4F34
:100EB000D70101900D928A95E1F7F70115A214A2CE
:100EC000CE0184509F4F0E946502CE01805E9E4FEE
:100ED0000E946502B701CE0109960E94CF03C701A7
:100EE0000E946502CE018C5B9E4F0E946502CE017E
:100EF00088599E4F0E946502F80180819181009778
:100F000011F00E94BB0CCF56DE4F0FB6F894DEBF37
:100F10000FBECDBFDF91CF911F910F91FF90EF904A
:100F20000895158214826EE671E0C9010E94130EC5
:100F30008ECF1F920F920FB60F9211242F933F93D3
:100F40004F935F936F937F938F939F93AF93BF93D1
:100F5000EF93FF938091B900887F803609F44AC0EF
:100F6000F0F5883209F4A5C018F5803109F499C06C
:100F7000B8F4882309F4F5C0883009F492C0FF91D1
:100F8000EF91BF91AF919F918F917F916F915F9101
:100F90004F913F912F910F900FBE0F901F9018957A
:100FA000883109F486C0803251F78093DF0114C084
:100FB000803409F49BC040F48033B9F38833F9F6E8
:100FC0008093DF0185ECAEC0803509F483C088359D
:100FD00009F494C0883499F60E945F00D0CF883914
:100FE00009F48AC038F5883729F050F4883611F0B2
:100FF000803729F683E08093E0011092DE0155C02E
:10100000883809F479C0803919F0803809F0B7CFF1
:101010008091DE01803208F06FC0E091DE0181E056
:101020008E0F8093DE018091BB00F0E0E254FE4F12
:1010300080833BC0803B39F0D0F4803A09F477C01C
:10104000883A09F09CCF84E08093E0011092BD01C2
:101050001092BC01F0E0E0E009958091BC018111A3
:101060000FC081E08093BC0110929C0109C0803CBC
:1010700009F4A8CF883C09F4A5CF883B09F07FCFBD
:10108000E091BD0181E08E0F8093BD01F0E0E45658
:10109000FE4F80818093BB009091BD018091BC0187
:1010A00029C0809105028093BB0085EC8093BC0031
:1010B00066CF9091040280910302981758F5E09151
:1010C000040281E08E0F80930402F0E0ED51FE4FA8
:1010D0008081E9CFE091040281E08E0F80930402C9
:1010E0008091BB00F0E0ED51FE4F808390910402AF
:1010F000809103029817C8F285E8D8CFE0910402E6
:1011000081E08E0F809304028091BB00F0E0ED51EE
:10111000FE4F80838091E20181115ECF81E0809358
:10112000E10184EA8093BC001092E00128CF85ECB5
:101130008093BC001092E0018091DE01803230F497
:10114000E091DE01F0E0E254FE4F10826091DE019A
:1011500070E08EEB91E0F0E0E0E009951092DE01A6
:101160000ECF1092DF0138CF1F920F920FB60F9261
:1011700011242F933F938F939F93AF93BF938091AD
:10118000970190919801A0919901B0919A013091A5
:10119000960123E0230F2D3758F50196A11DB11DAF
:1011A000209396018093970190939801A0939901C1
:1011B000B0939A018091920190919301A091940132
:1011C000B09195010196A11DB11D8093920190935C
:1011D0009301A0939401B0939501BF91AF919F911A
:1011E0008F913F912F910F900FBE0F901F901895E8
:1011F00026E8230F0296A11DB11DD2CF1F920F9298
:101200000FB60F9211242F933F934F935F936F93D9
:101210007F938F939F93AF93BF93EF93FF9386E05A
:1012200092E00E943801FF91EF91BF91AF919F91A1
:101230008F917F916F915F914F913F912F910F907F
:101240000FBE0F901F9018951F920F920FB60F921E
:1012500011242F938F939F93EF93FF93E0911602A6
:10126000F09117028081E0911C02F0911D0282FD35
:101270001BC0908180911F028F5F8F73209120028D
:10128000821741F0E0911F02F0E0EA5FFD4F958F79
:1012900080931F02FF91EF919F918F912F910F905B
:1012A0000FBE0F901F9018958081F4CFE6E0F2E01A
:1012B0001382128288EE93E0A0E0B0E084839583ED
:1012C000A683B78382E591E09183808385EC90E0EB
:1012D0009587848784EC90E09787868780EC90E000
:1012E000918B808B81EC90E0938B828B82EC90E0F1
:1012F000958B848B86EC90E0978B868B118E128E6B
:10130000138E148E0895789484B5826084BD84B55C
:10131000816084BD85B5826085BD85B5816085BDF0
:1013200080916E00816080936E00109281008091A8
:101330008100826080938100809181008160809330
:101340008100809180008160809380008091B10055
:1013500084608093B1008091B00081608093B00080
:1013600080917A00846080937A0080917A00826014
:1013700080937A0080917A00816080937A008091D6
:101380007A00806880937A001092C1000E948006E3
:10139000C0E0D0E02097F1F30E9424018823D1F32C
:1013A0000E940000F7CF0E94150A08F481E008951A
:1013B000E89409C097FB3EF49095809570956195EF
:1013C0007F4F8F4F9F4F9923A9F0F92F96E9BB27A5
:1013D0009395F695879577956795B795F111F8CF21
:1013E000FAF4BB0F11F460FF1BC06F5F7F4F8F4F8C
:1013F0009F4F16C0882311F096E911C0772321F082
:101400009EE8872F762F05C0662371F096E8862F19
:1014100070E060E02AF09A95660F771F881FDAF770
:10142000880F9695879597F90895990F0008550F9D
:10143000AA0BE0E8FEEF16161706E807F907C0F05A
:1014400012161306E407F50798F0621B730B840B62
:10145000950B39F40A2661F0232B242B252B21F43C
:1014600008950A2609F4A140A6958FEF811D811DDC
:1014700008950E944C0A0C94BD0A0E94AF0A38F0ED
:101480000E94B60A20F0952311F00C94A60A0C9441
:10149000AC0A11240C94F10A0E94CE0A70F3959FB5
:1014A000C1F3950F50E0551F629FF001729FBB275B
:1014B000F00DB11D639FAA27F00DB11DAA1F649FF7
:1014C0006627B00DA11D661F829F2227B00DA11DAA
:1014D000621F739FB00DA11D621F839FA00D611D30
:1014E000221F749F3327A00D611D231F849F600D51
:1014F000211D822F762F6A2F11249F5750409AF07A
:10150000F1F088234AF0EE0FFF1FBB1F661F771F05
:10151000881F91505040A9F79E3F510580F00C94D0
:10152000A60A0C94F10A5F3FE4F3983ED4F3869543
:1015300077956795B795F795E7959F5FC1F7FE2B70
:10154000880F911D9695879597F9089597F99F674C
:1015500080E870E060E008959FEF80EC089500243B
:101560000A941616170618060906089500240A9408
:1015700012161306140605060895092E0394000C8E
:1015800011F4882352F0BB0F40F4BF2B11F460FF1D
:1015900004C06F5F7F4F8F4F9F4F089557FD905846
:1015A000440F551F59F05F3F71F04795880F97FB27
:1015B000991F61F09F3F79F08795089512161306E1
:1015C0001406551FF2CF4695F1DF08C01616170610
:1015D0001806991FF1CF8695710561050894089545
:1015E000E894BB2766277727CB0197F908952F92B8
:1015F0003F924F925F926F927F928F929F92AF92A3
:10160000BF92CF92DF92EF92FF920F931F93CF93EF
:10161000DF93CDB7DEB7CA1BDB0B0FB6F894DEBF86
:101620000FBECDBF09942A88398848885F846E84AC
:101630007D848C849B84AA84B984C884DF80EE80F6
:10164000FD800C811B81AA81B981CE0FD11D0FB6FF
:10165000F894DEBF0FBECDBFED01089597FB072EB6
:1016600016F4009407D077FD09D00E94640B07FCA4
:1016700005D03EF4909581959F4F089570956195A2
:101680007F4F0895A1E21A2EAA1BBB1BFD010DC0BE
:10169000AA1FBB1FEE1FFF1FA217B307E407F50722
:1016A00020F0A21BB30BE40BF50B661F771F881FFE
:1016B000991F1A9469F760957095809590959B0194
:1016C000AC01BD01CF010895AA1BBB1B51E107C0AE
:1016D000AA1FBB1FA617B70710F0A61BB70B881FC2
:1016E000991F5A95A9F780959095BC01CD01089551
:1016F000EE0FFF1F0590F491E02D09945058BB2781
:10170000AA270E94960B0C94BD0A0E94AF0A38F0DB
:101710000E94B60A20F039F49F3F19F426F40C9485
:10172000AC0A0EF4E095E7FB0C94A60AE92F0E94A0
:10173000CE0A58F3BA17620773078407950720F09B
:1017400079F4A6F50C94F00A0EF4E0950B2EBA2F5E
:10175000A02D0B01B90190010C01CA01A0011124B7
:10176000FF27591B99F0593F50F4503E68F11A1663
:10177000F040A22F232F342F4427585FF3CF4695F4
:1017800037952795A795F0405395C9F77EF41F1616
:10179000BA0B620B730B840BBAF09150A1F0FF0FE0
:1017A000BB1F661F771F881FC2F70EC0BA0F621FCC
:1017B000731F841F48F4879577956795B795F795BC
:1017C0009E3F08F0B0CF9395880F08F09927EE0F51
:1017D0009795879508950E94D60A88F09F5798F0AC
:1017E000B92F9927B751B0F0E1F0660F771F881F26
:1017F000991F1AF0BA95C9F714C0B13091F00E9440
:10180000F00AB1E008950C94F00A672F782F88272A
:10181000B85F39F0B93FCCF3869577956795B39566
:10182000D9F73EF490958095709561957F4F8F4FD5
:101830009F4F08950E94150A08F48FEF08950F93A3
:101840001F93CF93DF938230910510F482E090E0F4
:10185000E091A502F091A60230E020E0B0E0A0E027
:10186000309799F42115310509F44AC0281B390B2A
:1018700024303105D8F58A819B816115710589F184
:10188000FB0193838283FE0111C04081518102815B
:10189000138148175907E0F04817590799F4109732
:1018A00061F012960C93129713961C933296CF0107
:1018B000DF91CF911F910F9108950093A50210938E
:1018C000A602F4CF2115310551F04217530738F025
:1018D000A901DB019A01BD01DF01F801C1CFEF01D0
:1018E000F9CF9093A6028093A502CDCFFE01E20F1F
:1018F000F31F819391932250310939832883D7CFE5
:101900002091A3023091A402232B41F420910201E3
:10191000309103013093A4022093A302209100018F
:10192000309101012115310541F42DB73EB74091A9
:10193000040150910501241B350BE091A302F091A5
:10194000A402E217F307A0F42E1B3F0B2817390758
:1019500078F0AC014E5F5F4F2417350748F04E0F0B
:101960005F1F5093A4024093A302819391939FCF52
:10197000F0E0E0E09CCFCF93DF930097E9F0FC012B
:10198000329713821282A091A502B091A602ED01B6
:1019900030E020E01097A1F420813181820F931F65
:1019A0002091A3023091A4022817390709F061C0E1
:1019B000F093A402E093A302DF91CF910895EA018E
:1019C000CE17DF07E8F54A815B819E01411551057D
:1019D000B1F7E901FB83EA8349915991C40FD51FFF
:1019E000EC17FD0761F4808191810296840F951FA9
:1019F000E90199838883828193819B838A83F0E0C4
:101A0000E0E012968D919C9113970097B9F52D9176
:101A10003C911197CD010296820F931F2091A30252
:101A20003091A4022817390739F6309751F51092F2
:101A3000A6021092A502B093A402A093A302BCCF69
:101A4000D383C28340815181840F951FC817D90762
:101A500061F44E5F5F4F88819981480F591F518310
:101A600040838A819B81938382832115310509F00C
:101A7000B0CFF093A602E093A5029ECFFD01DC015A
:101A8000C0CF13821282D7CFB0E0A0E0EAE4FDE03D
:101A90000C94F90A8C01009751F4CB010E941F0CA1
:101AA0008C01C801CDB7DEB7E0E10C94150BFC0149
:101AB000E60FF71F9C0122503109E217F30708F4E3
:101AC0009DC0D901CD91DC911197C617D70798F029
:101AD000C530D10530F3CE0104978617970708F378
:101AE000C61BD70B2297C193D1936D937C93CF01E3
:101AF0000E94BB0CD6CF5B01AC1ABD0A4C018C0E08
:101B00009D1EA091A502B091A602512C412CF12C52
:101B1000E12C109731F58091A3029091A4028815D1
:101B2000990509F05CC04616570608F058C0809128
:101B3000000190910101009741F48DB79EB740914B
:101B4000040150910501841B950BE817F90708F073
:101B500055C0F093A402E093A302F901718360835E
:101B6000A0CF8D919C91119712966C90129713961D
:101B70007C901397A815B90559F56C0142E0C40E85
:101B8000D11CCA14DB0420F1AC014A195B09DA014B
:101B90001296159780F06282738251834083D90137
:101BA0006D937C93E114F10471F0D7011396FC93CB
:101BB000EE93129776CF22968C0F9D1FF901918399
:101BC0008083F301EFCFF093A602E093A50269CFE3
:101BD0004816590608F42C017D01D3019ACFCB0198
:101BE0000E941F0C7C01009749F0AE01B8010E94D1
:101BF000010EC8010E94BB0C870153CF10E000E02A
:101C000050CFFB01DC0102C001900D9241505040C9
:101C1000D8F70895FB01DC018D9101908019011026
:101C2000D9F3990B0895FB01DC0101900D9200207E
:081C3000E1F70895F894FFCFDD
:101C38000000A70280000000803FCDCCCC3D6F1291
:101C4800833A95BFD6337D1D9026B3CE010CCDCCFB
:101C5800CC3D0AD7233C17B7D13877CC2B32959592
:101C6800E6241FB14F0A000020410000C84200408E
:101C78001C4620BCBE4CCA1B0E5AAEC59D74000043
:101C880000005A01BA00E700A7011801F6000A018E
:101C980022225C5C6208660C6E0A720D7409006E82
:101CA800756C6C00652D00747275650066616C73E7
:101CB800650073656E736F72006770730074696D89
:021CC8006500B5
:00000001FF
